:020000040000FA
:100000003029002019020000210200002302000014
:100010002502000027020000290200000000000065
:100020000000000000000000000000002B020000A3
:100030002D020000000000002F020000310200002D
:100040001505000033020000910800003302000093
:1000500033020000330200003D03000033020000C1
:1000600033020000330200003302000033020000BC
:1000700033020000330200003302000033020000AC
:10008000330200009D05000033020000330200002F
:10009000C1050000330200003302000033020000FB
:1000A000330200003302000033020000330200007C
:1000B0006D05000033020000000000000000000099
:1000C000330200007D0500008D05000033020000B2
:1000D0003302000033020000330200000000000081
:1000E0000000000000000000000000000000000010
:1000F0000000000000000000000000000000000000
:1001000000000000000000000000000000000000EF
:1001100000000000000000000000000000000000DF
:1001200000000000000000000000000000000000CF
:1001300000000000000000000000000000000000BF
:1001400000000000000000000000000000000000AF
:10015000000000000000000000000000000000009F
:10016000000000000000000000000000000000008F
:10017000000000000000000000000000000000007F
:10018000000000000000000000000000000000006F
:10019000000000000000000000000000000000005F
:1001A000000000000000000000000000000000004F
:1001B000000000000000000000000000000000003F
:1001C000000000000000000000000000000000002F
:1001D000000000000000000000000000000000001F
:1001E000000000000000000000000000000000000F
:1001F00000000000000000000000000000000000FF
:10020000DFF810D000F088F800480047611E0000B9
:10021000AFF3008030290020064880470648004799
:10022000FEE7FEE7FEE7FEE7FEE7FEE7FEE7FEE7A6
:10023000FEE7FEE7C5050000010200002DE9F05FC2
:100240000546002092469B46884606468146402445
:100250001BE0284641464746224600F04DF85346EB
:100260005A46C01A914110D311461846224600F052
:1002700034F82D1A67EB01084F4622460120002171
:1002800000F02BF817EB00094E41201EA4F10104E9
:10029000DFDC484631462A464346BDE8F09F000071
:1002A000004870475434000040EA01039B0703D024
:1002B00009E008C9121F08C0042AFAD203E011F8A5
:1002C000013B00F8013B521EF9D27047421C10F866
:1002D000011B0029FBD1801A7047202A04DB203A39
:1002E00000FA02F1002070479140C2F1200320FA89
:1002F00003F3194390407047202A04DB203A21FA87
:1003000002F00021704721FA02F3D040C2F120022E
:100310009140084319467047064C074D06E0E068D7
:1003200040F0010394E8070098471034AC42F6D33C
:10033000FFF76AFF64340000843400002DE9F047C1
:1003400000268CB0DFF86091B0464FF48075012430
:1003500037460696284602F0DDF938B1D9F804038D
:10036000204203D0284602F0CBF926432D1D64001D
:100370007F1CADB2082FEDD34FF4BE74204602F0BF
:10038000C9F948B1204602F0BBF946F0004606AA7A
:100390000121002002F0A0F9444D16F0FF0F15D006
:1003A0000127002437420DD009EB8401D1F8100554
:1003B000D1F81015C0F3042055F82420C1F30141F1
:1003C00002B190477F00641C082CEBD3002E67DA43
:1003D0004FF0FF30CDE9088000263446281910F888
:1003E000507F90F9000027F0C008401C44D009A9B4
:1003F000404601F071FD58B34FEA9719404601F0AD
:1004000001F955F820701FB1B9F1030F03D00FE0C7
:10041000B9F1030F30D108A84FEAD80208F007035A
:10042000815C4FF0010C0CFA03FC41EA0C01815491
:100430004FF0A04101EB8800D0F8000706A9C0F3F7
:10044000014A404601F048FD18B1BAF1020F03D04D
:1004500012E0BAF1030F0FD1B9F1030F08D1BAF1CD
:10046000020F1BD00221404602F01AF9761CF6B2A8
:1004700017B149464046B847641C042CAED3002E41
:100480000ED06A460121002002F026F90699009854
:10049000884205D00690089809909DE70321E2E77D
:1004A0000CB0BDE8F0870000006000403C02002076
:1004B00000F01F02012191404009800000F1E0207E
:1004C000C0F88012704700F01F02012191404009DE
:1004D000800000F1E020C0F80011704700F01F021A
:1004E000012191404009800000F1E020C0F8001295
:1004F00070474907090E002806DA00F00F0000F1E6
:10050000E02080F8141D704700F1E02080F800140E
:10051000704700002DE9F0414FF48077384601F034
:10052000E3FC0124104EA50748B1384601F0E3FC76
:100530000120C5F808037470002001F06BF84FF437
:100540008277384601F0D0FC00280BD0384601F005
:10055000D2FC0220C5F80803B470BDE8F0410120C8
:1005600001F058B8BDE8F081280200200149024896
:1005700001F07EBB9402002000C001400149024806
:1005800001F076BB9C0200200010024001490248A5
:1005900001F06EBBA40200200020024007480021A9
:1005A000C0F84011C0F84411C0F84811C0F84C110F
:1005B000C0F80011C0F8041102F0B6BC00100140F0
:1005C00002F004BCF0B5A3480023021D0178012508
:1005D000101D4FF0805406290BD11678360708D12C
:1005E0000678C6F30316032E06D0042E04D0052E7B
:1005F00002D0062907D00EE0B4F82463964FC6F364
:1006000004263E6002E01678360704D10678C6F369
:100610000316032E02D0062904D00FE0904F8F4E10
:100620007E670EE01678360708D10678C6F3031603
:10063000032E06D0042E04D0052E02D0062907D0A2
:100640000EE0D4F84462874FC6F342363E6002E0C3
:100650001678360704D10678C6F30316032E02D0A7
:10066000062906D011E0804E376827F08077376082
:100670000EE01678360708D10678C6F30316032E67
:1006800006D0042E04D0052E02D006290AD011E08F
:100690004FF08046C6F80C31C6F81031714E361F47
:1006A000336002E01678360704D10678C6F30316E5
:1006B000032E02D0062905D00CE06A4F03266437CA
:1006C0003E600AE01678360704D10678C6F30316B2
:1006D000032E02D006290DD014E0644F05263E609B
:1006E000624E78363560614E083633603F263F1DD6
:1006F0003E6002E01678360704D10678C6F303168A
:10070000052E02D0062957D068E059490968594A90
:1007100011605749091D0968121D116054490831BB
:100720000968121D116052490C310968121D1160CF
:100730004F4910310968121D11604D491431096883
:10074000121D11604A49183109684A4A2032116065
:1007500047491C310968121D11604549203109685B
:10076000121D1160424924310968121D116040496F
:1007700028310968121D11603D492C310968121D8C
:1007800011603B49303109683A4A403211603849BA
:1007900034310968121D1160354938310968121D5C
:1007A000116033493C310968121D116030494031F4
:1007B0000968121D116002E0117809070ED1007856
:1007C000C0F30310032803D0042801D0052805D165
:1007D000D4F85802284900F04F00086022487438C5
:1007E000016841F470010160BFF34F8FBFF36F8F59
:1007F0004FF01021D1F80002002803DBD1F80402E9
:10080000002822DA1D4A15601D480468002CFCD01F
:100810001524C1F800420568002DFCD0C1F804423F
:1008200001680029FCD0136001680029FCD0BFF3E7
:100830004F8F0D48F0380168124A01F4E06111430E
:100840000160BFF34F8F00BFFDE710490E480860FD
:10085000F0BD0000E00F00F0403501400DF0ADBAF2
:1008600000C007403C050040FCED00E01056004091
:100870000404001020C50040E40E004004E50140DF
:1008800000E401400400FA050090D003BC00002001
:100890000448017F04480029024901D002F04DBC00
:1008A00002F0BCBBAC020020002000400FB47CB5BD
:1008B0000C0009AD01D0611E00E00021CDE900016E
:1008C000064B6A462946089800F01AF8002C02D018
:1008D000009A002111707CBC5DF814FB570D0000DC
:1008E00002E008C8121F08C1002AFAD170477047F9
:1008F000002001E001C1121F002AFBD17047000057
:100900002DE9FF4F8DB00F460546002606E025284D
:100910000BD0DDE90F1290476D1C761C287800285B
:10092000F5D111B03046BDE8F08F0024A246A146B3
:100930000122E94900E0044315F8013F203B02FA97
:1009400003F00842F7D128782A2810D06FF02F0240
:100950002878A0F13001092914D80AEB8A0102EBAA
:10096000410144F0020400EB010A6D1CF0E701CFE5
:100970005FEA000A03D544F40054CAF1000A44F0C7
:1009800002046D1C28782E2817D115F8010F44F0A9
:1009900004042A280ED06FF02F022878A0F130012D
:1009A00009290AD809EB890102EB410100EB010991
:1009B0006D1CF2E757F8049B6D1C28786C280FD04B
:1009C00006DC4C2817D068280DD06A2814D104E022
:1009D000742810D07A280FD10DE044F400140AE0F6
:1009E00044F4801401E044F440146978814202D157
:1009F00004F580146D1C6D1C28786E281ED00CDC4C
:100A0000632830D004DC00288BD0582811D19FE017
:100A1000642867D069280CD164E073282DD004DCE9
:100A20006F2872D0702804D194E075286ED0782891
:100A30006DD0DDE90F129047761C4BE1C4F30250F4
:100A4000022806D0032809D0042801CF09D0066067
:100A500040E101CFF117C0E900613BE101CF068021
:100A600038E1067036E117F8040B8DF8000000201D
:100A70008DF80100EB46012003E057F804BB4FF06E
:100A8000FF3061074FF0000102D40DE008F10101D1
:100A9000884649450FDA8045F8DB1BF80810002925
:100AA000F4D108E008F1010188468142FADB1BF825
:100AB00008100029F6D1DDE90F23AAEB08008146D2
:100AC000214600F031F9304400EB080604E0DDE98E
:100AD0000F121BF8010B9047B8F10108F7D221461D
:100AE0004846F2E00A21C4F302524FF0000B08918D
:100AF000022A04D001CFC117032A09D00AE0FF1D42
:100B000027F00707F7E8020108E02CE01EE01FE0ED
:100B100000B2C117042A01D140B2C117021E71F1FF
:100B2000000206DA0023D0EB030063EB01012D2263
:100B300002E0220504D52B228DF82420012203E0B7
:100B4000E20701D02022F7E7904653E00A210BE0AC
:100B5000102109E010214FF0000B44F004044FF085
:100B60000809089103E008214FF0000B0891C4F335
:100B70000252022A04D001CF0021032A06D006E047
:100B8000FF1D27F00707F7E8020103E080B2042AFF
:100B900000D1C0B24FF0000822072BD52A78702A66
:100BA00007D0DDF820C08CF0100C5CEA0B0C05D0EF
:100BB0000EE040228DF82420012208E050EA0103D3
:100BC00006D030238DF824308DF82520022290465F
:100BD000089B83F0080353EA0B030BD150EA010290
:100BE00001D1620706D530228DF824204FF001088C
:100BF000A9F101092A78582A04D038A20B9208AA30
:100C00000A920BE03AA2F9E75B46089AFFF716FB57
:100C10000B9B9B5C0A9A521E0A92137050EA0102C7
:100C2000F2D10A98ADEB000000F1200B600702D56D
:100C300024F4803401E04FF00109D94502DDA9EB2D
:100C40000B0000E0002000EB0B0141440890AAEBF0
:100C5000010AE00306D4DDE90F232146504600F0E7
:100C600063F806444FF0000908E009A911F80900EB
:100C7000DDE90F12904709F10109761CC145F4DB4B
:100C8000E0030CD5DDE90F232146504600F04CF877
:100C9000064404E0DDE90F1230209047761C0899E5
:100CA000481E08900029F5DC08E00A980A990078A7
:100CB000491C0A91DDE90F129047761CBBF1000137
:100CC000ABF1010BF1DC21465046DDE90F2300F0CA
:100CD00019F806446D1C21E6092801003031323331
:100CE0003435363738396162636465660000000068
:100CF0003031323334353637383941424344454652
:100D0000000000002DE9F041044600251E4617466C
:100D1000880404D405E039462020B0476D1C641EC9
:100D2000F9D52846BDE8F0812DE9F04104460025BB
:100D30001E469046C80301D5302700E020278804CE
:100D400004D505E041463846B0476D1C641EF9D510
:100D50002846BDE8F0814A68002A06D00A68531C7C
:100D60000B6010704868401E48607047022000F019
:100D700095B9000070B50024064D06E068680121B1
:100D800010F8340001F082F9641C28788442F5D30D
:100D9000002070BD80000020F8B515460C460646C0
:100DA000052A01D20720F8BD01F056FA18B901F062
:100DB00025FA0028F7D1104900204E600C70C1E9D7
:100DC00002500E4D08610DE006EBC4006968009109
:100DD00081788DF801100078094A694601F0A8F978
:100DE0000028E0D1641EE4B2EED2BDE8F840054A26
:100DF0000021024800F052B8800000208433000037
:100E0000A11B0000011B000070B514460D460646EC
:100E100000F095F9224629463046BDE8704000F0C2
:100E20000BB80EB500210091CDE901106A4644F2DD
:100E30000100FFF7E9FF0EBD08B501238DF8003072
:100E40009DF80030144B186059609A606FF480412F
:100E5000401807D001280FD1DA60D868008898615F
:100E6000D86807E01A6118698068586118690088B5
:100E7000986118694068D861186858689868D86897
:100E8000186958699869D86972B600BF9DF8000062
:100E90000028FBD162B608BDEC020020084B9B780D
:100EA00023B12AB120B10068037C1BB10820704730
:100EB000072070470023037441744261184670474D
:100EC0000C03002070B501F0FBFE104800240B213C
:100ED000047044700E4D817014206C602C706C7026
:100EE000FFF7E6FA07211420FFF703FB1420FFF7B2
:100EF000EAFA0848046007211120FFF7FAFA0548CA
:100F0000001F0068A860002070BD00000C030020D6
:100F100094000020081501402DE9F843DFF8709097
:100F200099F802305BB350B3052902D20720BDE81F
:100F3000F88343691BB3437C012B22D0002704466E
:100F4000002588461646284600F036F8684602F026
:100F50006DF9C0B1012101700E4944600968C0E912
:100F60000218C0E904769DF8000089F8010000200D
:100F700000F024F81420FFF7B1FA2846D7E708203C
:100F8000D5E70F46DBE70425002000F017F8F4E76B
:100F90000C030020041501400649897839B130B1AD
:100FA000416921B100210174022101F09DBF082097
:100FB000704700000C03002000F002B800F008B8F1
:100FC00072B602480168491C01607047A800002001
:100FD00003490868401E086000D162B670470000EF
:100FE000A80000202DE9F041064608680C46411C87
:100FF0004FF0A0474FF0010506D005FA00F1C7F801
:101000000815206801F042FB6068411C02D00021F5
:1010100001F033FB3079204901EB4010A169007FDA
:1010200000283068C0F8241525D0607D227D316805
:101030001043C1F86C05D4E900123068C0F80C15F3
:10104000C0F8142524E0A068411C02D0002101F062
:1010500014FBE068411C05D08540C7F80855E068DE
:1010600001F014FBD4E902123068C0F80825C0F87A
:101070001015BDE8F081607D217D32680843C2F81B
:101080006C05D4E900123068C0F81425C0F80C15BE
:10109000207D0128D7D0ECE7AC02002007490B5C8B
:1010A0004FF0A041D1F804250120984020EA020326
:1010B000C1F808351040C1F80C0570474C330000EA
:1010C0000249085C012101F0FCBA00004C33000029
:1010D0000249085C002101F0F4BA00004C33000022
:1010E0000649095C4FF0A040D0F80405C84010F054
:1010F000010000D0012080F0010070474C33000057
:101100007CB50024084E25460122305D0095002361
:101110001146019501F072FA641C042CF4D3BDE869
:101120007C4000F003B800004C33000010B50024F0
:101130002046FFF7C5FF641C042CF9D310BD10B581
:1011400000242046FFF7C4FF641C042CF9D310BD13
:1011500010B50246064B4FF0FF3000215C5C944214
:1011600001D1084610BD491C0429F7D310BD000069
:10117000503300002DE9F0470D468146FFF7E8FFA8
:101180000446042836D2DFF874801B481C4EA8F1B0
:101190000C0725B3012D0ED0022D2BD104EB4400FA
:1011A00030444578002D25D0B968002922D0284642
:1011B000BDE8F047084704EB4401755C0E447178C4
:1011C00049B10E4A4FF40041093A8068FFF7A4FE86
:1011D00008B987F80390B17808F80410E2E780684E
:1011E000FFF7DAFE04EB4401314418F804008D786F
:1011F000A842D7D0BDE8F087543300007C0000201F
:10120000FC010020FFF7B6BD70B50023042810D202
:101210000D4D00EB4004012A02D101290CD000221F
:10122000094E00EB4000304461B1012906D002298B
:1012300006D00723184670BD0E30C2B22A55F9E712
:101240004270F7E78270F5E7FC01002070B586B0C8
:101250000646142219496846FFF726F8184C00255F
:101260000E2E617806D00F2E25D1042908D2491CF4
:10127000617006E009B1491EFAE70420607000E0E1
:1012800065702078C00703D00D48001D01F0ACF850
:101290002078800703D50A480C3001F0A5F82078A3
:1012A000400703D50648143001F09EF82570617898
:1012B0005DF82100804706B070BD000038330000A3
:1012C0000000002070B506461E480024C0E90161F8
:1012D000B00720D50025012211462846FFF794FFCC
:1012E0006D1C0446042D02D2002CF4D013E094B9F6
:1012F00040F2666204211448FFF74EFD04000AD153
:10130000FFF738FD040006D10F48104A0021001FE6
:10131000FFF7C4FD0446F00701D0FFF7F1FE74B9F2
:1013200009480B4A00210C38FFF7B8FD040006D12C
:101330000548084A01210838FFF7B0FD0446204659
:1013400070BD00007000002060330000991500009F
:10135000551D00006D0D00002DE9F05F6A4C05463B
:1013600000266078B34618B184F801B000F0DAFCCA
:10137000664F4FF47A694FF4C87A4FF00108182D80
:1013800062D2DFE805F0AC0C0C31404D62676B7443
:101390006B74BE7D7D7D7D7DACAFB2B5BEBE0020E1
:1013A000FFF79EFE00284FF0000008D0FFF788FEF0
:1013B000022D02D14FF4E16008E0484606E0FFF755
:1013C00087FE022D01D1C82000E05046410CC00329
:1013D0004FF4FA72801841F1000125705200002389
:1013E000FEF72CFF01462AE00020FFF779FE0028D7
:1013F0004FF0000004D0FFF763FE4FF44870E5E7BC
:10140000FFF766FEDFE70020FFF76AFE00284FF0D7
:10141000000002D0FFF754FECFE7FFF759FED4E7F4
:101420000020FFF75DFE00284FF0000002D0FFF71C
:1014300047FE01E0FFF74CFE257041F69A110022AD
:101440003868FFF769FD064646E00020FFF726FEF4
:10145000257008E0002051E025703DE084F801800F
:101460000120FFF71BFE002240F6CD41E8E784F89B
:1014700001800120FFF712FE00224FF48041DFE7D8
:101480007868FFF789FD0646D5F1110000D02EB12E
:101490000220FFF715FE84F802B01DE0012816D9DE
:1014A00080B2C8214843C117C90341EA5041C00373
:1014B0004FF4FA72801841F1000152000023FEF748
:1014C000BDFE014600227868FFF726FD0646022091
:1014D000FFF7FEFD84F802803046BDE8F09F00F083
:1014E00021FCB9E700F01EFCB4E700F01BFC04E0AF
:1014F00000F018FC0020FFF7EBFD0120FFF7E8FDEE
:10150000AAE7FFF71CFEA7E7700000205433000095
:10151000002901DA002070470268114401600120AF
:101520007047000070B5461C0D4601240020FFF7EF
:1015300043FD114A10682860D2E900109568081A26
:101540002B1A701C5B1C98420FD963B10B480C4BD3
:10155000294000681B6802EB810163F39F20C8608B
:101560001068401C1060002401E088191060002001
:10157000FFF724FD204670BD18050020AC330000A5
:10158000B8000020034803C8814201D10120704700
:10159000002070471805002000780221FFF7EABDFF
:1015A00005494FF0FF32082841F8202002D30844B3
:1015B00080F84820704700003C020020F0B54FF052
:1015C000FF3512B10023082601E008230C260C4C3D
:1015D00005E000BF54F823707F1C04D05B1CB342AD
:1015E000F8D32846F0BD26185DB286F8305044F88E
:1015F0002310002AF5D1E11881F84800F1E7000036
:101600003C0200200249084490F930007047000075
:101610003C02002070B5084C050009D01034216848
:10162000002907D008682060496828468847F6E7FF
:101630000834F4E770BD0000280200202DE9F05FB7
:1016400026484168F1B3DFF898B00E688146DBF8B0
:10165000004087688078E11B21F07F45ED1CB0B920
:10166000DFF880804FF48030C8F84403C8F80403E2
:101670001120FEF71DFF1120FEF725FF4FF0010A94
:10168000C8F800A02F2000F03FFC89F802A0B54266
:1016900000D23546124BE8193C3320F07F401860E9
:1016A000DBF800105A46091B21F07F41001B20F097
:1016B0007F40C91C81420FD9106818602F2000F0AC
:1016C00023FC00E004E0BDE8F05F1120FEF706BF58
:1016D000BDE8F05F01F0F4BABDE8F09F940000208F
:1016E0000415014000100140FFB5002301244FF014
:1016F000A0456E46CA5CFF2A12D0D70922F08002AC
:1017000046F8232004FA02F702D0C5F8087501E074
:10171000C5F80C7505EB82020327C2F8007703E0D9
:101720004FF0FF3246F823205B1CDBB2042BE1D3E1
:10173000016832465FF0000001EB800452F820306F
:10174000C4F86035401CC0B20428F5D3FFBD0000CA
:101750000EB513A1032001F0E9F9164A07CA8DE876
:101760000700154A6946154800F0B6FD08B1FFF7B5
:1017700058FB124A0223121F02F11C01107840F09C
:10178000010010700020088048808880C880907018
:10179000084901221039094800F0EEFD0EBD000095
:1017A0004150503A494E464F3A44656D6F20310DD5
:1017B0000A0000006C320000C11700000400002085
:1017C00070B5002822D112484FF0000200F11C042D
:1017D00083785D0813F0010F34F8151004D0C83970
:1017E0000904090C06D006E0C83189B242F210762D
:1017F000B14200D3012224F81510002A06D05B1C48
:10180000D9B28170082901D30021817070BD000018
:101810000000002010B58CB01DA1032001F086F956
:10182000204C09AB04F11C0007C883E80700002224
:1018300009A91D4800F050FD08B1FFF7F2FA1A4857
:101840001A4B001F4FF4C872017841F0010101707A
:1018500000210846114489B223F81010401CC0B280
:101860001928F7D328340DF1040C0FCC8CE80F00A5
:1018700094E80F000DF1140C8CE80F00022000908A
:10188000012305AA01A9084800F0F8FC0CB010BD1E
:101890004150503A494E464F3A44656D6F20320DE3
:1018A0000A0000005C32000004000020C00000209C
:1018B00010B588B012A1032001F038F9154C04AB23
:1018C00004F1480007C883E80700002204A9124871
:1018D00000F002FD08B1FFF7A4FA0F485434001FCE
:1018E000017841F00101017094E80F008DE80F00CC
:1018F000012303226946084800F03EFD08B010BDF0
:101900004150503A494E464F3A44656D6F20330D71
:101910000A0000005C32000004000020F0B59BB01B
:1019200054A1032001F002F9574E02AB06F1640006
:10193000FF2407C883E8070091208DF808008DF880
:10194000094092208DF80A0007208DF80D0047F617
:101950001220ADF8100001208DF812008DF80B4018
:10196000002202A9494800F0B7FC08B1FFF759FA74
:10197000464D05AF2D1F7036287840F001002870C5
:1019800096E80F0087E80F0004208DF80D00002076
:1019900041F28833ADF810303D4A8DF8120001460F
:1019A0006426314489B222F8101002EB400C5F1A11
:1019B000401CC0B2ACF864703228F2D38DF80840F5
:1019C0008DF8094093208DF80A0030488DF80B40BF
:1019D000002202A9083000F07FFC08B1FFF721FACD
:1019E0002878294E40F00200803628700FCE09AFCB
:1019F00087E80F0096E80F000DAF103E87E80F0054
:101A00008DF808408DF809408DF80A4094208DF833
:101A10000B001E48002202A9103000F05DFC08B146
:101A2000FFF7FFF92878203640F0040028700FCE29
:101A300011AC84E80F0096E80F0015AC84E80F00A5
:101A40000223012205A9114800F096FC0F48022448
:101A500001230DAA09A90830009400F00FFC0B48DF
:101A6000012315AA11A91030009400F007FC1BB047
:101A7000F0BD00004150503A494E464F3A44656D22
:101A80006F20340D0A0000005C32000004000020CA
:101A9000F200002010B588B012A1032001F046F832
:101AA000154C04AB04F1400007C883E8070000228E
:101AB00004A9124800F010FC08B1FFF7B2F90F4872
:101AC0004C34001F017841F00101017094E80F00CF
:101AD0008DE80F00022301226946084800F04CFC03
:101AE00008B010BD4150503A494E464F3A44656DDA
:101AF0006F20350D0A000000DC32000004000020D9
:101B00002DE9F04100260125144C22E0606822698D
:101B100000EBC607387805FA00F1114217D08A4366
:101B2000226100F061FB02463878E36805FA00F1B3
:101B3000194002FA00F3994209D17978012901D0BC
:101B4000012100E0002151407A6802B19047761CE3
:101B5000F6B220788642D9D3BDE8F081800000201B
:101B60000E4910B50A784C780023A24212D0521CBC
:101B7000D2B20A70022A00D10B70084A0B780C32DC
:101B800052F8232002608868104420F07F4088606B
:101B9000012010BD0360002010BD00009400002053
:101BA0002DE9F041124E07460125BD403068FFF790
:101BB000F3F900280DD10F4C2069284207D138468F
:101BC00000F012FB0028E06805D0284304E0A84399
:101BD0002061BDE8F081A843E060206928432061CE
:101BE000A1683068BDE8F0410022FFF795B9000018
:101BF000843300008000002070B50E460446007952
:101C000018494FF4A27501EB4010017F2068A1B183
:101C10004FF4887100F0FAFF4FF49071206800F0E3
:101C2000F5FF4FF49271206800F0F0FF294620681C
:101C300000F0ECFF0C49206809E04FF48E7100F0D1
:101C4000D4FF2946206800F0D0FF08492068C0F87A
:101C50000413206800F017FA3146BDE8704000F028
:101C6000F6B90000AC020020100302008000020060
:101C700070B50C464FF488760546314600F096FF65
:101C800050B13146284600F096FF6079400703D5F1
:101C9000216809B1012088474FF48A7631462846E9
:101CA00000F084FF50B13146284600F084FF60798F
:101CB000000703D5216809B1022088474FF48E76CA
:101CC0003146284600F072FF50B13146284600F0F8
:101CD00072FF6079C00603D4216809B100208847EB
:101CE0004FF482763146284600F060FF00280CD081
:101CF0003146284600F05FFF01202071216800294D
:101D000003D0BDE870400320084770BD0268134649
:101D100002E08A4204D01268002AFAD10B60016006
:101D2000704700000A4810B5807860B1002401E0D7
:101D3000022C06D02046FFF7C3F9641C042CF7D30D
:101D400010BD0324F6E7BDE81040FFF7EFB900002F
:101D50007000002003480179C90702D00078FFF71E
:101D6000FBBA7047700000202DE9F047394E00277C
:101D700080463D46DFF8E090D6F804A057E003D057
:101D80000446D0F81C8035E099F8002002EB4201AF
:101D9000521CD2B289F8002009EBC10199F8023037
:101DA000091D9A4201D189F8005048680A78044612
:101DB000012A12D0022A02D0032A3BD108E001F006
:101DC00063F800B10127257434E00574C06900E0B0
:101DD00070680028F9D170602CE0207C50BB8868C6
:101DE0006060C868A0600869E0604869A061F07838
:101DF00000B165606268B168184B501A20F07F40EE
:101E0000984202D2A168084406E0881AA16820F02E
:101E10007F40814202D9081A206000E02560656099
:101E20000120A56020742046E56101F00FF8B8F1AB
:101E30000000A4D199F8001099F801008142A3D1C3
:101E400017B97168514502D00120BDE8F087002024
:101E5000FBE70000940000200C030020FFFF7F0040
:101E600000F098F808B1FEF7DCFF002000F0B4F8AD
:101E7000FFF728F808B1FEF7D4FF10490220FFF75A
:101E800021FA08B1FEF7CDFFFFF7BCF908B1FEF764
:101E9000C8FF002000F078FE08B1FEF7C2FF08A1DD
:101EA000032000F043FEFFF753FC20BF40BF20BFDC
:101EB00000F09AFD0028FBD1F7E700004D1200006A
:101EC0004150503A494E464F3A50574D206578613F
:101ED0006D706C650D0A0000C20800F00703012058
:101EE000895C98400840704700F1804000680028F5
:101EF00000D00120704708B500F18040002101604A
:101F00000068009008BD000000283ED01F49204A0C
:101F1000096800BF00BF00BF00BF00BF00BF00BF17
:101F200000BF91422FD000BF00BF00BF00BF00BF65
:101F300000BF00BF00BF00BF00BF00BF00BF00BFA9
:101F400000BF00BF00BF00BF00BF00BF00BF00BF99
:101F500000BF00BF00BF00BF00BF00BF00BF00BF89
:101F600000BF00BF00BF00BF00BF00BF00BF00BF79
:101F700000BF00BF00BF00BF00BF00BF00BF00BF69
:101F800000BF00BF00BF401EC3D17047BC0000208F
:101F90000024F40070B50E4C0025207808B185258A
:101FA00013E00021A16061602161E1604FF0E02059
:101FB000D0F80001012610F0010F03D10721002005
:101FC00000F045F8034806602670284670BD000002
:101FD000280200201805004070B5154D0446A87869
:101FE00038B114B16168012088470020FEF7E4FF92
:101FF00015E00020FEF7E0FF24B10D482146103027
:10200000FFF784FEE86850B94FF48270FFF773FF62
:1020100002204107C1F80403064901200860E8686E
:10202000401CE860BDE870400020FEF7C7BF00001C
:10203000280200200800004000F01F02012191400A
:102040004009800000F1E020C0F880117047490786
:10205000090E002806DA00F00F0202F1E02282F8F1
:10206000141D03E000F1E02282F8001400F01F02CA
:10207000012191404009800000F1E020C0F8801269
:10208000C0F800117047000B40B270472DE9F041D5
:102090008846054600F0C0FD234E002828461AD089
:1020A000FFF7B0FA304490F848008009032802D0C6
:1020B00001280ED007E04FF0A040D0F81005E8400E
:1020C00010F0010F05D003212846BDE8F04100F0D3
:1020D000E7BA0221F8E700F0ABFD002822D028463D
:1020E000FFF790FA04464FF4807000EB84000F4F26
:1020F00081B207EB8400D0F8102542F00102C0F84D
:102100001025084600F0FCFAB8F1000F0AD0284666
:10211000FFF778FA56F82000002803D00120A040ED
:10212000C7F80403BDE8F0813C02002000600040D5
:102130002DE9FC41DFF8A480044608EB04000027E9
:1021400090F930001346C0170E46401C01D00827F6
:1021500041E0F27819462046FFF730FA0546401C68
:1021600038D0B07850B14FF0A04000EB8400D0F8E8
:10217000001721F00201C0F8001707E00021737872
:10218000204600910A46019100F04AFAF078C0B169
:102190001348317800EB8500D0F81025114B1A4018
:1021A000C0F810254FF4F8524FF4403302EA0422ED
:1021B00003EA01410A43D0F810150A43C0F810257C
:1021C00009E008EB0500327810F8481F41EA821157
:1021D000017000E004273846BDE8FC813C02002085
:1021E00000600040FFE0FCFF4FF0A041D1F8101567
:1021F000C14011F0010000D00120704770B5144DAE
:1022000095F8540008B1082070BD0020411E2A181E
:10221000401CC0B282F830102028F8D30024204699
:10222000FFF7BEF9641CE4B20C2CF8D3072106209A
:10223000FFF70DFF4FF4BE7000F062FA05494FF052
:102240000040C1F80403012085F85400002070BD4F
:102250003C02002000600040034890F85400002831
:1022600000D00120704700003C0200200121B1EBAA
:10227000507F01D101207047002070472DE9F041C7
:10228000904604460079134A1F4602EBC0060A46F0
:10229000069D0021206800F094FC42460121206840
:1022A00000F08FFC2068C0F81475E80701D01020FA
:1022B00004E0A80701D5042000E000202168C1F84F
:1022C0000002EAB231462046BDE8F041082300F0A2
:1022D00057BD0000940200202DE9F0410D46044650
:1022E0000079244901EBC006307910B10820BDE81F
:1022F000F081294620463260FFF7F6F92068012771
:10230000C0F8007520686B79AA792989C0F80C3566
:10231000C0F80425C0F80815AA7AE87A216842EACC
:102320000020C1F8100520680021C0F800122068C4
:10233000C0F800134FF48E71206800F03CFC4FF49D
:102340008871206800F037FC4FF48A71206800F033
:1023500032FC4FF48271206800F02DFC306828B107
:1023600020682979000B40B2FFF771FE3771002019
:10237000BDE70000940200202DE9F0410F4604461D
:1023800000791849164601EBC0081D463A4600215F
:10239000206800F016FC3A460121206800F011FC8C
:1023A000206806F0010101EB5602C0F81425E80789
:1023B00001D0102007E0A80704D509B1082002E0E9
:1023C000042000E000202268C2F8000209B10C23BA
:1023D00000E00823EAB241462046BDE8F04100F0A3
:1023E000CFBC00009402002010B501790A4A0123F5
:1023F00002EBC1020168090B49B201F01F04A340BE
:102400004909890001F1E021C1F88031006800210B
:10241000C0F80015117110BD940200202DE9F041A3
:1024200005460079164F904607EB40140E46E07EB5
:1024300010B10820BDE8F081707F20772846FEF7B4
:10244000D1FD5FEA080060603169216003D0317F0F
:102450002846FFF7D1FB287907EB4010007F0028C2
:10246000286801D0082100E00421C0F800150020F0
:10247000E0752076A0750121E176A076DAE700000C
:10248000AC0200202DE9F047054600793F4E90460A
:1024900006EB40140F46207F18B10846FFF7E6FE12
:1024A00030B1284600F074F820B11120BDE8F08763
:1024B0001020FBE784F81680A7600027A782287900
:1024C0004FF0010806EB40143E46207F00282868A4
:1024D00025D04FF49079494600F098FB4FF4AC7A40
:1024E0005146286800F092FB2868A17DA268C0F8D8
:1024F0004425C0F848152868C0F808806068F0B91D
:102500004946286800F07DFB80465146286800F067
:1025100078FB58EA0001F3D058BBA7750FE04FF4E1
:102520008E7A514600F061FB2868C0F80880214689
:10253000286800F04DFD61684FF4807089B1304625
:10254000B4E75146286800F04BFB10B9A08A484513
:10255000F7D1A08A484505D02146286800F038FD0B
:1025600000E08146A08AA17D8842EAD3A08A48453E
:1025700001D10F26D1E75146286800F031FB002831
:10258000F9D02868C0F80C80C7E70000AC02002032
:102590000079044901EB4010807D002800D0012023
:1025A00070470000AC02002070B504460079114964
:1025B000002601EB401520682A7FC0F80065686896
:1025C00088B1207901EB4010007F0028206801D0FD
:1025D000094901E008498C39C0F808132068FFF761
:1025E00052FDFFF729FD204600F02EFBEE766E60CF
:1025F00070BD0000AC0200201003020070B541EA7B
:102600004201DDE904564FF0A04441EA830141EA6A
:10261000052104EB800041EA0641C0F8001770BDB7
:1026200070B541EA4201DDE904564FF0A04441EAA9
:10263000830141EA052104EB800041EA0641C0F82C
:10264000001770BD70B541EA4201DDE904564FF054
:10265000A04441EA830141EA052104EB800041EAFC
:102660000641C0F8001770BD1CB5002100910B4653
:1026700001220191FFF7E6FF1CBD1CB500220B46AD
:10268000009211460192FFF7DDFF1CBD1CB5002131
:1026900000910B46012201911146FFF7D3FF1CBDAB
:1026A0004FF0A04202EB8000D0F8002722F4403225
:1026B000C0F80027D0F8002742EA0141C0F800170F
:1026C000704701224FF0A043824011B1C3F80825A2
:1026D0007047C3F80C25704718B5084B6C46014489
:1026E0001B68009306E000BF54F82030D3F8103583
:1026F000401C08C28142F7D818BD0000803300009A
:10270000034908B50844002101600068009008BD35
:102710000060004002494058012800D00020704766
:1027200000600040004870479D27000030B5184CFD
:10273000054689B0207828B16078854202D1002012
:1027400009B030BD202213496846FDF7ADFD0020D9
:102750008DF81400062000900820019005200390B9
:10276000072002904FF0EB7006900948001DFFF71C
:102770001BFF0DB1002200E0074A05486946001D15
:10278000FFF74CFE0028DBD1012020706570D6E7F2
:10279000AC0000208C3300000D3000002DE9F04F1C
:1027A000C1B00D004FF0000140914D984B991C466F
:1027B000174601EB000B01D00A2000E00020804604
:1027C00000F0C2FA00287CD16E46BCB9409840AAFD
:1027D0003118284600F0E2FB002872D03846FDF799
:1027E00075FDC22800D9C220054640982A463044CB
:1027F0003946FDF759FD4098284440904FF0200A93
:10280000409901EB080231320DEB01050DEB020698
:10281000002002E005F801AB401C4045FAD3002738
:102820005C4508D305F801AB05F801AB05F801AB31
:1028300006F801AB2DE04B98844202D24A98005D25
:1028400002E0211A4C98405C2B4681460246012149
:10285000880022FA00F000F00F00092801D9373073
:1028600000E03030C1F1010C491E03F80C00EFD23A
:102870009D1C05F801ABFDF713FD016811F8090077
:1028800010F03E0F01D0484600E02E2006F8010B64
:10289000641C7F1C102FC3D30D2030700A20707071
:1028A00085F800A04099684641444331409100F0CA
:1028B00051FA30B100F048FA18B9002040905C4558
:1028C0009ED341B02046BDE8F08F2DE9F043C7B05C
:1028D00000251C46904689464E9F459500F034FAE7
:1028E00000287AD1459805AE311845AA484600F02F
:1028F00055FB002835D0072F27D2DFE807F0041258
:102900001B35424F5D004046FDF7E0FC054645980B
:102910002918FF2919D830442A464146FDF7C4FC3E
:1029200013E045982368C0F5807130444246FDF7B6
:10293000BDFF09E06068009045982368C0F580718C
:1029400030444246FDF7B2FF0546294645A8FEF74A
:10295000DFFD459978B3B1F5807F3ED805A800F03A
:10296000F9F947B0BDE8F083D4E90101CDE90001F0
:1029700045982368C0F5807130444246FDF796FFC4
:10298000E2E7201D07C88DE8070045982368C0F5D9
:10299000807130444246FDF789FFD5E7201D0FC8FE
:1029A0008DE80F0045982368C0F580713044424699
:1029B000FDF77CFFC8E710E004F1080001AD0FC887
:1029C00085E80F006068009045982368C0F5807125
:1029D00030444246FDF76AFFB6E70020C1E7000039
:1029E00000487047CB2800002DE9F04F87B0FEF774
:1029F000C9FD18B1002007B0BDE8F08F454DD5E9FD
:102A0000014704EA070005EB8000A146641CC66884
:102A10000CE000BFC6F3891000EB9650044404EAB2
:102A2000070005EB8000A146C668641CB007F1D022
:102A300006F003004FF0000B022805D0B20A01A9EE
:102A4000C6F38313002053E004EA070005EB80007F
:102A500004F1010A0AEA0704C268381B80004FEA41
:102A60009658001DC6F38913804521D929490C3198
:102A700038B105EB840400F0FF0CA8EB00000C3427
:102A800004E00C46002108F0FF0C0846C0B2CDE976
:102A90000210CDE9004CD5F81444C6F3C2005946E3
:102AA000A047404511D108F103080AEB98042AE039
:102AB000002105EB84000C300090CDE901810391E9
:102AC000C6F3C200D5F81444EAE760F38F1609EAAA
:102AD000070005EB8000C66016E000BF04EA070CA3
:102AE00005EB8C0C401CDCF80CC041F804CB641CDA
:102AF0009842F3D3C6F3C2000093D5F8106401AB3B
:102B00005946B04700B16C60FEF73CFD80F0010013
:102B100071E7000018050020034AFF23936000239B
:102B20001360536000F028B8180500202DE9F84321
:102B30000F4F88460446002569462846BE68FEF7C2
:102B4000F1FC002812D00B480021406861F382009C
:102B5000009964F3C50001EA060265F3891007EBEA
:102B6000820268F39F20491CD0600091BDE8F88381
:102B700018050020AC330000024A02F5826203C24D
:102B8000704700001805002070B506460020FFF7CA
:102B9000CDFD040008D1FFF7C5FD0546FFF720FF76
:102BA00032462946FFF7B8FF204670BD405800283E
:102BB00000D00120704708B50022425040580090D4
:102BC00008BD00EB41101368C0F820359188C0F8AB
:102BD00024159168C0F82815D168C0F82C157047E5
:102BE0004058002800D00120704708B5002242500C
:102BF0004058009008BDD0F80403084000D00120E0
:102C000070474058002800D00120704708B50022C6
:102C100042504058009008BD0449084490F93000E3
:102C2000082801DB01207047002070473C0200208B
:102C30000449084490F93000082801D20120704767
:102C4000002070473C02002070B5034600791B4904
:102C500001EB40101968027F4FF0FF30002AD1F8D5
:102C60000C25D1F81465D1F80855D1F8104504D0D9
:102C7000C1F80C05C1F8140503E0C1F81405C1F84A
:102C80000C051968C1F80805C1F81005501C02D0E0
:102C90001046FFF7E9FC701C02D03046FFF7E4FC59
:102CA000601C02D02046FFF7DFFC681C04D02846D9
:102CB000BDE87040FFF7D8BC70BD0000AC0200203A
:102CC00070B5012670044FF0E0210025C1F88001A5
:102CD000084C4010C4F84803C4F8080366602F206D
:102CE000FFF712F9A660044C2F20A560FFF70CF93E
:102CF000A57070BD001001409400002070B505461D
:102D0000C87D0C4600284FF4847128460AD0FFF78E
:102D10006CFFD5F81805627EE1688854607E401C1F
:102D2000607670BDFFF761FFD5F8180570BD1FB55F
:102D300001238DF800308DF808100192D0E90012BF
:102D4000684690471FBD00000148FFF721BC000006
:102D5000B000002070B50D460A4601460124064821
:102D6000FDF7A2FAEAB204490448FFF78BFB00B171
:102D70000024204670BD000018040020B000002090
:102D800070B5054602201E46144608714A7108684F
:102D900070B18221600700D59221200701D541F052
:102DA0002001E00601D521F080012868C0F8001359
:102DB0004FF482712868FFF7FEFE2006286801D5CF
:102DC000304470BD01218151002070BD2DE9F84FC4
:102DD0001D4C00256846D4E901A6FEF7C1FE002778
:102DE00038B30023009A61681CE0D1F800C008469F
:102DF000944503D9ACEB02020A6015E0A2EB0C0289
:102E000063440760D0F80CC0C1698146BCF1000F73
:102E100008D006EB030828F07F48C0E9018CC9F808
:102E20001C5005460029E0D128466160FEF79CFF52
:102E300003E02846FEF798FF10B15046FEF7FEFB70
:102E4000E770BDE8F88F0000940000200D4B10B52E
:102E5000596831B102680C68A24204D8A21A0A600B
:102E6000C161586010BD0B4603E00B46C969121BD7
:102E700021B10C689442F8D3A41A0C600260C161BD
:102E8000D86110BD940000202DE9F041144E776800
:102E90003D462C4603E0844204D02546E469002CDC
:102EA000F9D11BE0D4B1A5420BD1F869706040B9EB
:102EB0000C49012088600021B160F0702F20FFF7DD
:102EC00023F82168E069E86110B1026811440160EB
:102ED0007068874202D00120BDE8F0810020FBE746
:102EE0009400002000100140F8B5064600240D466D
:102EF0002046FEF761F8684600F098F968B1057061
:102F0000084946609DF8000048700020FEF756F81A
:102F10001420FDF7E3FA2046F8BD04240020FEF754
:102F20004DF8F8E70C0300202DE9F041194D6C68CD
:102F3000002C2CD0184800270068A968B846401A11
:102F400020F07F462068B0420CD82146361A07444C
:102F5000E469087C20B181F8108088694969884754
:102F6000002CEFD129786878814206D1401CC0B28C
:102F70006870022801D185F80180064869780C3014
:102F800040F82170BDE8F0411420FDF7A7BABDE874
:102F9000F0810000940000200415014010B5144693
:102FA00002004FF001000CD00846136806A24FF44F
:102FB0008071FDF77BFC01462046BDE81040FEF71E
:102FC000A7BA0021216010BD5B253038645D000088
:102FD00070B50C4605464FF48E71FFF706FEA18AC8
:102FE000A068415CA08A401CA082C5F81C1570BD79
:102FF0001FB500228DF800208DF80810816801911E
:103000008275D0E90012684690471FBD00780128FC
:1030100001D1014988707047AC0000202DE9FF47BD
:103020000C4605464FF40071FFF7E5FD01274FF40C
:103030000178002618B34FF4927949462846FFF7E5
:10304000CFFDE0B149462846FFF7CFFDC5F808831C
:10305000A07E00B96F6002208DF80000D5F88004D2
:10306000C5F880040390E07D8DF80800E0680190C9
:10307000E6752676D4E900126846904727E00421D9
:103080002846FFF7B8FD10B34FF484712846FFF7C8
:10309000A7FDE0B121462846FFF730FEE07D617EC6
:1030A000884214D1207E38B1617EE268E0752069E3
:1030B000E0602676667607E0A07E00B96F60C5F80E
:1030C0000883E675617EE2682046FFF730FE4FF424
:1030D0008E7841462846FFF783FD88B1A08AA17DFE
:1030E000884204D221462846FFF772FF08E0414695
:1030F0002846FFF77AFDA17D11B12046FFF778FF42
:103100004FF4A27841462846FFF76AFD002812D006
:1031100041462846FFF769FDA07E00B12F60E07DA3
:10312000002808D0E675617EE26804B02046BDE85C
:10313000F047FFF7FCBDBDE8FF872DE9FF410C46D6
:103140004FF4927705463946FFF75BFD0026C0B184
:1031500039462846FFF75AFD02208DF80000D5F8C1
:103160008004C5F880040390D5F83C058DF808006C
:10317000E0680190E6752676D4E90012684690472B
:1031800024E04FF4887739462846FFF73AFDE8B146
:1031900039462846FFF73AFDD5F83C05C1B2E07D37
:1031A000884213D1207E60B1E268D5F8000220F099
:1031B0002000C5F80002207EE0752069E0602676D8
:1031C00001E0E675E2682046FFF7B1FD4FF4A27713
:1031D00039462846FFF715FD68B139462846FFF7FE
:1031E00015FDE07D38B1E675D5F83C05E268C1B261
:1031F0002046FFF79CFD4FF4907631462846FFF7B6
:1032000000FD00280FD031462846FFF7FFFCA07DC7
:10321000002808D0D5F84C0504B0C1B22046BDE85E
:10322000F041FFF7E5BEBDE8FF8100000A494A789A
:103230008B78521CD2B2934200D100220B78934279
:1032400001D1002070470270487800EB400001EB8C
:10325000C000001D704700000C0300201C0000206F
:103260000400000000000000000000009192949310
:1032700007040000102702009192939407050000B4
:1032800010270000C000002019000000010000000D
:1032900000000000240000200600000004000000E0
:1032A0000000000091FFFFFF07070000A861000079
:1032B00030000020060000000000000004000000B4
:1032C0000000000007000000000000003C0000209B
:1032D000080000000100000000000000F2000020D3
:1032E0006400000000000000000000004C0000200E
:1032F0000200000095000000000000004C000020CB
:10330000020000003100000000000000F200002078
:1033100064000000020000000000000091939492FD
:1033200007070000093D02005000002010000000C7
:1033300000000000000000005117000015180000F8
:10334000B11800001D190000951A00001112131485
:103350000D0E0F10BC010020DC010020080200202F
:103360000D000300751100000E0003007511000030
:103370000F0003007511000010000300751100001C
:1033800000000050CC02002003000000FFFFFFFF00
:10339000FFFFFFFFFFFFFFFFFFFFFFFF0000000039
:1033A000000000000000D601070100002900000015
:1033B0000100000001000000010000000100000009
:1033C00001000000010000000100000002000000F8
:1033D0000040404040404040404041414141414028
:1033E00040404040404040404040404040404040DD
:1033F000400502020202020202020202020202026C
:103400000220202020202020202020020202020270
:1034100002029090909090901010101010101010C8
:1034200010101010101010101010101002020202D4
:103430000202888888888888080808080808080818
:103440000808080808080808080808080202020214
:1034500040000000D13300004F766572666C6F77D4
:103460000D0A00008434000000000020C0000000AD
:10347000E008000044350000C00000207028000073
:10348000F00800000000000000C001400000000043
:103490000010024001000000002002400200000075
:1034A000000000000000000000000080000000801C
:1034B000000000000080000000800000008000008C
:1034C00000000000008000000000008000800080FC
:1034D00000000000008000000000000000000080EC
:1034E000000000000000000000800000000000005C
:1034F000000000800000000000000000000000004C
:1035000000000000000000000000000000000000BB
:1035100000000000000000000000000000000000AB
:10352000000000000000000000000000000000009B
:10353000000000000020004000000000583400009F
:043540000090D00324
:0400000500000201F4
:00000001FF
